{
  "contractName": "BEP20Token",
  "abi": [
    {
      "inputs": [],
      "stateMutability": "nonpayable",
      "type": "constructor"
    },
    {
      "anonymous": false,
      "inputs": [
        {
          "indexed": true,
          "internalType": "address",
          "name": "owner",
          "type": "address"
        },
        {
          "indexed": true,
          "internalType": "address",
          "name": "spender",
          "type": "address"
        },
        {
          "indexed": false,
          "internalType": "uint256",
          "name": "value",
          "type": "uint256"
        }
      ],
      "name": "Approval",
      "type": "event"
    },
    {
      "anonymous": false,
      "inputs": [
        {
          "indexed": false,
          "internalType": "address",
          "name": "userId",
          "type": "address"
        }
      ],
      "name": "ChangeStatus",
      "type": "event"
    },
    {
      "anonymous": false,
      "inputs": [
        {
          "indexed": false,
          "internalType": "address",
          "name": "userId",
          "type": "address"
        }
      ],
      "name": "DonateUser",
      "type": "event"
    },
    {
      "anonymous": false,
      "inputs": [
        {
          "indexed": false,
          "internalType": "address",
          "name": "userId",
          "type": "address"
        }
      ],
      "name": "NewUser",
      "type": "event"
    },
    {
      "anonymous": false,
      "inputs": [
        {
          "indexed": true,
          "internalType": "address",
          "name": "previousOwner",
          "type": "address"
        },
        {
          "indexed": true,
          "internalType": "address",
          "name": "newOwner",
          "type": "address"
        }
      ],
      "name": "OwnershipTransferred",
      "type": "event"
    },
    {
      "anonymous": false,
      "inputs": [
        {
          "indexed": true,
          "internalType": "address",
          "name": "from",
          "type": "address"
        },
        {
          "indexed": true,
          "internalType": "address",
          "name": "to",
          "type": "address"
        },
        {
          "indexed": false,
          "internalType": "uint256",
          "name": "value",
          "type": "uint256"
        }
      ],
      "name": "Transfer",
      "type": "event"
    },
    {
      "inputs": [],
      "name": "owner",
      "outputs": [
        {
          "internalType": "address",
          "name": "",
          "type": "address"
        }
      ],
      "stateMutability": "view",
      "type": "function",
      "constant": true
    },
    {
      "inputs": [],
      "name": "renounceOwnership",
      "outputs": [],
      "stateMutability": "nonpayable",
      "type": "function"
    },
    {
      "inputs": [
        {
          "internalType": "address",
          "name": "newOwner",
          "type": "address"
        }
      ],
      "name": "transferOwnership",
      "outputs": [],
      "stateMutability": "nonpayable",
      "type": "function"
    },
    {
      "inputs": [
        {
          "internalType": "address",
          "name": "_address",
          "type": "address"
        }
      ],
      "name": "createUser",
      "outputs": [],
      "stateMutability": "nonpayable",
      "type": "function"
    },
    {
      "inputs": [
        {
          "internalType": "address",
          "name": "_address",
          "type": "address"
        },
        {
          "internalType": "bool",
          "name": "_state",
          "type": "bool"
        },
        {
          "internalType": "bool",
          "name": "_isEmpty",
          "type": "bool"
        }
      ],
      "name": "setUser",
      "outputs": [],
      "stateMutability": "nonpayable",
      "type": "function"
    },
    {
      "inputs": [
        {
          "internalType": "address",
          "name": "_address",
          "type": "address"
        }
      ],
      "name": "getUser",
      "outputs": [
        {
          "components": [
            {
              "internalType": "uint8",
              "name": "index",
              "type": "uint8"
            },
            {
              "internalType": "uint8",
              "name": "marked",
              "type": "uint8"
            },
            {
              "internalType": "uint256",
              "name": "room",
              "type": "uint256"
            },
            {
              "internalType": "bool",
              "name": "isReceive",
              "type": "bool"
            },
            {
              "internalType": "bool",
              "name": "isCreated",
              "type": "bool"
            },
            {
              "internalType": "address[]",
              "name": "donated",
              "type": "address[]"
            },
            {
              "internalType": "address[]",
              "name": "got",
              "type": "address[]"
            }
          ],
          "internalType": "struct BEP20Token.User",
          "name": "",
          "type": "tuple"
        }
      ],
      "stateMutability": "view",
      "type": "function",
      "constant": true
    },
    {
      "inputs": [],
      "name": "getRooms",
      "outputs": [
        {
          "internalType": "uint256[]",
          "name": "",
          "type": "uint256[]"
        }
      ],
      "stateMutability": "view",
      "type": "function",
      "constant": true
    },
    {
      "inputs": [
        {
          "internalType": "uint256",
          "name": "_amount",
          "type": "uint256"
        }
      ],
      "name": "addRoom",
      "outputs": [],
      "stateMutability": "nonpayable",
      "type": "function"
    },
    {
      "inputs": [
        {
          "internalType": "address",
          "name": "_address",
          "type": "address"
        }
      ],
      "name": "checkExistsUser",
      "outputs": [
        {
          "internalType": "bool",
          "name": "",
          "type": "bool"
        }
      ],
      "stateMutability": "view",
      "type": "function",
      "constant": true
    },
    {
      "inputs": [
        {
          "internalType": "address",
          "name": "_address",
          "type": "address"
        }
      ],
      "name": "getUserState",
      "outputs": [
        {
          "internalType": "bool",
          "name": "",
          "type": "bool"
        }
      ],
      "stateMutability": "view",
      "type": "function",
      "constant": true
    },
    {
      "inputs": [
        {
          "internalType": "address",
          "name": "_address",
          "type": "address"
        }
      ],
      "name": "getUserDonated",
      "outputs": [
        {
          "internalType": "address[]",
          "name": "",
          "type": "address[]"
        }
      ],
      "stateMutability": "view",
      "type": "function",
      "constant": true
    },
    {
      "inputs": [
        {
          "internalType": "address",
          "name": "_address",
          "type": "address"
        }
      ],
      "name": "getUserGot",
      "outputs": [
        {
          "internalType": "address[]",
          "name": "",
          "type": "address[]"
        }
      ],
      "stateMutability": "view",
      "type": "function",
      "constant": true
    },
    {
      "inputs": [
        {
          "internalType": "address",
          "name": "_recipient",
          "type": "address"
        },
        {
          "internalType": "uint256",
          "name": "_amount",
          "type": "uint256"
        }
      ],
      "name": "donateToken",
      "outputs": [],
      "stateMutability": "nonpayable",
      "type": "function"
    },
    {
      "inputs": [],
      "name": "getGameAddress",
      "outputs": [
        {
          "internalType": "address[]",
          "name": "",
          "type": "address[]"
        }
      ],
      "stateMutability": "view",
      "type": "function",
      "constant": true
    },
    {
      "inputs": [],
      "name": "getOwner",
      "outputs": [
        {
          "internalType": "address",
          "name": "",
          "type": "address"
        }
      ],
      "stateMutability": "view",
      "type": "function",
      "constant": true
    },
    {
      "inputs": [],
      "name": "decimals",
      "outputs": [
        {
          "internalType": "uint8",
          "name": "",
          "type": "uint8"
        }
      ],
      "stateMutability": "view",
      "type": "function",
      "constant": true
    },
    {
      "inputs": [],
      "name": "symbol",
      "outputs": [
        {
          "internalType": "string",
          "name": "",
          "type": "string"
        }
      ],
      "stateMutability": "view",
      "type": "function",
      "constant": true
    },
    {
      "inputs": [],
      "name": "name",
      "outputs": [
        {
          "internalType": "string",
          "name": "",
          "type": "string"
        }
      ],
      "stateMutability": "view",
      "type": "function",
      "constant": true
    },
    {
      "inputs": [],
      "name": "totalSupply",
      "outputs": [
        {
          "internalType": "uint256",
          "name": "",
          "type": "uint256"
        }
      ],
      "stateMutability": "view",
      "type": "function",
      "constant": true
    },
    {
      "inputs": [
        {
          "internalType": "address",
          "name": "account",
          "type": "address"
        }
      ],
      "name": "balanceOf",
      "outputs": [
        {
          "internalType": "uint256",
          "name": "",
          "type": "uint256"
        }
      ],
      "stateMutability": "view",
      "type": "function",
      "constant": true
    },
    {
      "inputs": [
        {
          "internalType": "address",
          "name": "recipient",
          "type": "address"
        },
        {
          "internalType": "uint256",
          "name": "amount",
          "type": "uint256"
        }
      ],
      "name": "transfer",
      "outputs": [
        {
          "internalType": "bool",
          "name": "",
          "type": "bool"
        }
      ],
      "stateMutability": "nonpayable",
      "type": "function"
    },
    {
      "inputs": [
        {
          "internalType": "address",
          "name": "owner",
          "type": "address"
        },
        {
          "internalType": "address",
          "name": "spender",
          "type": "address"
        }
      ],
      "name": "allowance",
      "outputs": [
        {
          "internalType": "uint256",
          "name": "",
          "type": "uint256"
        }
      ],
      "stateMutability": "view",
      "type": "function",
      "constant": true
    },
    {
      "inputs": [
        {
          "internalType": "address",
          "name": "spender",
          "type": "address"
        },
        {
          "internalType": "uint256",
          "name": "amount",
          "type": "uint256"
        }
      ],
      "name": "approve",
      "outputs": [
        {
          "internalType": "bool",
          "name": "",
          "type": "bool"
        }
      ],
      "stateMutability": "nonpayable",
      "type": "function"
    },
    {
      "inputs": [
        {
          "internalType": "address",
          "name": "sender",
          "type": "address"
        },
        {
          "internalType": "address",
          "name": "recipient",
          "type": "address"
        },
        {
          "internalType": "uint256",
          "name": "amount",
          "type": "uint256"
        }
      ],
      "name": "transferFrom",
      "outputs": [
        {
          "internalType": "bool",
          "name": "",
          "type": "bool"
        }
      ],
      "stateMutability": "nonpayable",
      "type": "function"
    },
    {
      "inputs": [
        {
          "internalType": "address",
          "name": "spender",
          "type": "address"
        },
        {
          "internalType": "uint256",
          "name": "addedValue",
          "type": "uint256"
        }
      ],
      "name": "increaseAllowance",
      "outputs": [
        {
          "internalType": "bool",
          "name": "",
          "type": "bool"
        }
      ],
      "stateMutability": "nonpayable",
      "type": "function"
    },
    {
      "inputs": [
        {
          "internalType": "address",
          "name": "spender",
          "type": "address"
        },
        {
          "internalType": "uint256",
          "name": "subtractedValue",
          "type": "uint256"
        }
      ],
      "name": "decreaseAllowance",
      "outputs": [
        {
          "internalType": "bool",
          "name": "",
          "type": "bool"
        }
      ],
      "stateMutability": "nonpayable",
      "type": "function"
    },
    {
      "inputs": [
        {
          "internalType": "uint256",
          "name": "amount",
          "type": "uint256"
        }
      ],
      "name": "mint",
      "outputs": [
        {
          "internalType": "bool",
          "name": "",
          "type": "bool"
        }
      ],
      "stateMutability": "nonpayable",
      "type": "function"
    }
  ],
  "bytecode": "0x60806040526001600460006101000a81548160ff021916908360ff1602179055506040518060a00160405280600460009054906101000a900460ff16600a620000499190620004fd565b60326200005791906200063a565b8152602001600460009054906101000a900460ff16600a6200007a9190620004fd565b60646200008891906200063a565b8152602001600460009054906101000a900460ff16600a620000ab9190620004fd565b60c8620000b991906200063a565b8152602001600460009054906101000a900460ff16600a620000dc9190620004fd565b6101f4620000eb91906200063a565b8152602001600460009054906101000a900460ff16600a6200010e9190620004fd565b6103e86200011d91906200063a565b81525060099060056200013292919062000372565b503480156200014057600080fd5b506000620001536200036a60201b60201c565b9050806000806101000a81548173ffffffffffffffffffffffffffffffffffffffff021916908373ffffffffffffffffffffffffffffffffffffffff1602179055508073ffffffffffffffffffffffffffffffffffffffff16600073ffffffffffffffffffffffffffffffffffffffff167f8be0079c531659141344cd1fd0a4f28419497f9722a3daafe3b4186f6b6457e060405160405180910390a3506040518060400160405280600a81526020017f47616d6520546f6b656e00000000000000000000000000000000000000000000815250600690805190602001906200023e929190620003c4565b506040518060400160405280600481526020017f47414d4500000000000000000000000000000000000000000000000000000000815250600590805190602001906200028c929190620003c4565b506001600460006101000a81548160ff021916908360ff1602179055506305f5e100600381905550600354600160003373ffffffffffffffffffffffffffffffffffffffff1673ffffffffffffffffffffffffffffffffffffffff168152602001908152602001600020819055503373ffffffffffffffffffffffffffffffffffffffff16600073ffffffffffffffffffffffffffffffffffffffff167fddf252ad1be2c89b69c2b068fc378daa952ba7f163c4a11628f55a4df523b3ef6003546040516200035c919062000485565b60405180910390a362000753565b600033905090565b828054828255906000526020600020908101928215620003b1579160200282015b82811115620003b057825182559160200191906001019062000393565b5b509050620003c0919062000455565b5090565b828054620003d290620006b2565b90600052602060002090601f016020900481019282620003f6576000855562000442565b82601f106200041157805160ff191683800117855562000442565b8280016001018555821562000442579182015b828111156200044157825182559160200191906001019062000424565b5b50905062000451919062000455565b5090565b5b808211156200047057600081600090555060010162000456565b5090565b6200047f816200069b565b82525050565b60006020820190506200049c600083018462000474565b92915050565b6000808291508390505b6001851115620004f457808604811115620004cc57620004cb620006e8565b5b6001851615620004dc5780820291505b8081029050620004ec8562000746565b9450620004ac565b94509492505050565b60006200050a826200069b565b91506200051783620006a5565b9250620005467fffffffffffffffffffffffffffffffffffffffffffffffffffffffffffffffff84846200054e565b905092915050565b60008262000560576001905062000633565b8162000570576000905062000633565b81600181146200058957600281146200059457620005ca565b600191505062000633565b60ff841115620005a957620005a8620006e8565b5b8360020a915084821115620005c357620005c2620006e8565b5b5062000633565b5060208310610133831016604e8410600b8410161715620006045782820a905083811115620005fe57620005fd620006e8565b5b62000633565b620006138484846001620004a2565b925090508184048111156200062d576200062c620006e8565b5b81810290505b9392505050565b600062000647826200069b565b915062000654836200069b565b9250817fffffffffffffffffffffffffffffffffffffffffffffffffffffffffffffffff048311821515161562000690576200068f620006e8565b5b828202905092915050565b6000819050919050565b600060ff82169050919050565b60006002820490506001821680620006cb57607f821691505b60208210811415620006e257620006e162000717565b5b50919050565b7f4e487b7100000000000000000000000000000000000000000000000000000000600052601160045260246000fd5b7f4e487b7100000000000000000000000000000000000000000000000000000000600052602260045260246000fd5b60008160011c9050919050565b61449f80620007636000396000f3fe608060405234801561001057600080fd5b50600436106101a95760003560e01c8063725e2deb116100f9578063a9059cbb11610097578063d08f6a6b11610071578063d08f6a6b1461050a578063dd62ed3e14610528578063f2fde38b14610558578063fc67e3fc14610574576101a9565b8063a9059cbb1461048e578063b5286cb7146104be578063cdd87618146104ee576101a9565b80638da5cb5b116100d35780638da5cb5b146103f257806395d89b4114610410578063a0712d681461042e578063a457c2d71461045e576101a9565b8063725e2deb14610386578063893d20e8146103a45780638b2f6ee2146103c2576101a9565b806339509351116101665780636f77926b116101405780636f77926b1461030057806370a0823114610330578063715018a61461036057806371a6acf21461036a576101a9565b80633950935114610284578063416ae768146102b45780634a24b1c3146102e4576101a9565b806306fdde03146101ae578063095ea7b3146101cc57806318160ddd146101fc57806323b872dd1461021a578063276a45f81461024a578063313ce56714610266575b600080fd5b6101b66105a4565b6040516101c391906138f1565b60405180910390f35b6101e660048036038101906101e191906132e3565b610636565b6040516101f391906138d6565b60405180910390f35b610204610654565b6040516102119190613af5565b60405180910390f35b610234600480360381019061022f919061323d565b61065e565b60405161024191906138d6565b60405180910390f35b610264600480360381019061025f9190613323565b610737565b005b61026e6107f8565b60405161027b9190613b10565b60405180910390f35b61029e600480360381019061029991906132e3565b61080f565b6040516102ab91906138d6565b60405180910390f35b6102ce60048036038101906102c991906131d0565b6108c2565b6040516102db91906138d6565b60405180910390f35b6102fe60048036038101906102f99190613290565b61091b565b005b61031a600480360381019061031591906131d0565b610b06565b6040516103279190613ad3565b60405180910390f35b61034a600480360381019061034591906131d0565b610cf5565b6040516103579190613af5565b60405180910390f35b610368610d3e565b005b610384600480360381019061037f91906132e3565b610e91565b005b61038e611dd2565b60405161039b9190613892565b60405180910390f35b6103ac611e60565b6040516103b99190613877565b60405180910390f35b6103dc60048036038101906103d791906131d0565b611e6f565b6040516103e99190613892565b60405180910390f35b6103fa611f3f565b6040516104079190613877565b60405180910390f35b610418611f68565b60405161042591906138f1565b60405180910390f35b61044860048036038101906104439190613323565b611ffa565b60405161045591906138d6565b60405180910390f35b610478600480360381019061047391906132e3565b6120ab565b60405161048591906138d6565b60405180910390f35b6104a860048036038101906104a391906132e3565b612178565b6040516104b591906138d6565b60405180910390f35b6104d860048036038101906104d391906131d0565b612196565b6040516104e59190613892565b60405180910390f35b610508600480360381019061050391906131d0565b612266565b005b6105126124f8565b60405161051f91906138b4565b60405180910390f35b610542600480360381019061053d91906131fd565b612550565b60405161054f9190613af5565b60405180910390f35b610572600480360381019061056d91906131d0565b6125d7565b005b61058e600480360381019061058991906131d0565b612678565b60405161059b91906138d6565b60405180910390f35b6060600680546105b390613eb2565b80601f01602080910402602001604051908101604052809291908181526020018280546105df90613eb2565b801561062c5780601f106106015761010080835404028352916020019161062c565b820191906000526020600020905b81548152906001019060200180831161060f57829003601f168201915b5050505050905090565b600061064a6106436126d6565b84846126de565b6001905092915050565b6000600354905090565b600061066b8484846128a9565b61072c846106776126d6565b610727856040518060600160405280602881526020016143f760289139600260008b73ffffffffffffffffffffffffffffffffffffffff1673ffffffffffffffffffffffffffffffffffffffff16815260200190815260200160002060006106dd6126d6565b73ffffffffffffffffffffffffffffffffffffffff1673ffffffffffffffffffffffffffffffffffffffff16815260200190815260200160002054612b379092919063ffffffff16565b6126de565b600190509392505050565b61073f6126d6565b73ffffffffffffffffffffffffffffffffffffffff1660008054906101000a900473ffffffffffffffffffffffffffffffffffffffff1673ffffffffffffffffffffffffffffffffffffffff16146107cc576040517f08c379a00000000000000000000000000000000000000000000000000000000081526004016107c390613a13565b60405180910390fd5b600981908060018154018082558091505060019003906000526020600020016000909190919091505550565b6000600460009054906101000a900460ff16905090565b60006108b861081c6126d6565b846108b3856002600061082d6126d6565b73ffffffffffffffffffffffffffffffffffffffff1673ffffffffffffffffffffffffffffffffffffffff16815260200190815260200160002060008973ffffffffffffffffffffffffffffffffffffffff1673ffffffffffffffffffffffffffffffffffffffff16815260200190815260200160002054612b9b90919063ffffffff16565b6126de565b6001905092915050565b6000600760008373ffffffffffffffffffffffffffffffffffffffff1673ffffffffffffffffffffffffffffffffffffffff16815260200190815260200160002060020160009054906101000a900460ff169050919050565b6109236126d6565b73ffffffffffffffffffffffffffffffffffffffff1660008054906101000a900473ffffffffffffffffffffffffffffffffffffffff1673ffffffffffffffffffffffffffffffffffffffff16146109b0576040517f08c379a00000000000000000000000000000000000000000000000000000000081526004016109a790613a13565b60405180910390fd5b6109ba8383612bf9565b8015610b0157600067ffffffffffffffff8111156109db576109da613fde565b5b604051908082528060200260200182016040528015610a095781602001602082028036833780820191505090505b50600760008573ffffffffffffffffffffffffffffffffffffffff1673ffffffffffffffffffffffffffffffffffffffff1681526020019081526020016000206003019080519060200190610a5f9291906130a3565b50600067ffffffffffffffff811115610a7b57610a7a613fde565b5b604051908082528060200260200182016040528015610aa95781602001602082028036833780820191505090505b50600760008573ffffffffffffffffffffffffffffffffffffffff1673ffffffffffffffffffffffffffffffffffffffff1681526020019081526020016000206004019080519060200190610aff9291906130a3565b505b505050565b610b0e61312d565b600760008373ffffffffffffffffffffffffffffffffffffffff1673ffffffffffffffffffffffffffffffffffffffff1681526020019081526020016000206040518060e00160405290816000820160009054906101000a900460ff1660ff1660ff1681526020016000820160019054906101000a900460ff1660ff1660ff168152602001600182015481526020016002820160009054906101000a900460ff161515151581526020016002820160019054906101000a900460ff1615151515815260200160038201805480602002602001604051908101604052809291908181526020018280548015610c5757602002820191906000526020600020905b8160009054906101000a900473ffffffffffffffffffffffffffffffffffffffff1673ffffffffffffffffffffffffffffffffffffffff1681526020019060010190808311610c0d575b5050505050815260200160048201805480602002602001604051908101604052809291908181526020018280548015610ce557602002820191906000526020600020905b8160009054906101000a900473ffffffffffffffffffffffffffffffffffffffff1673ffffffffffffffffffffffffffffffffffffffff1681526020019060010190808311610c9b575b5050505050815250509050919050565b6000600160008373ffffffffffffffffffffffffffffffffffffffff1673ffffffffffffffffffffffffffffffffffffffff168152602001908152602001600020549050919050565b610d466126d6565b73ffffffffffffffffffffffffffffffffffffffff1660008054906101000a900473ffffffffffffffffffffffffffffffffffffffff1673ffffffffffffffffffffffffffffffffffffffff1614610dd3576040517f08c379a0000000000000000000000000000000000000000000000000000000008152600401610dca90613a13565b60405180910390fd5b600073ffffffffffffffffffffffffffffffffffffffff1660008054906101000a900473ffffffffffffffffffffffffffffffffffffffff1673ffffffffffffffffffffffffffffffffffffffff167f8be0079c531659141344cd1fd0a4f28419497f9722a3daafe3b4186f6b6457e060405160405180910390a360008060006101000a81548173ffffffffffffffffffffffffffffffffffffffff021916908373ffffffffffffffffffffffffffffffffffffffff160217905550565b8173ffffffffffffffffffffffffffffffffffffffff163373ffffffffffffffffffffffffffffffffffffffff161415610f00576040517f08c379a0000000000000000000000000000000000000000000000000000000008152600401610ef7906139d3565b60405180910390fd5b80600160003373ffffffffffffffffffffffffffffffffffffffff1673ffffffffffffffffffffffffffffffffffffffff168152602001908152602001600020541015610f82576040517f08c379a0000000000000000000000000000000000000000000000000000000008152600401610f7990613a33565b60405180910390fd5b6002600760003373ffffffffffffffffffffffffffffffffffffffff1673ffffffffffffffffffffffffffffffffffffffff16815260200190815260200160002060000160019054906101000a900460ff1660ff161080156110315750600760003373ffffffffffffffffffffffffffffffffffffffff1673ffffffffffffffffffffffffffffffffffffffff16815260200190815260200160002060020160009054906101000a900460ff16155b611070576040517f08c379a000000000000000000000000000000000000000000000000000000000815260040161106790613a73565b60405180910390fd5b61107a3383612c57565b338360405160200161108d929190613835565b604051602081830303815290604052906110dd576040517f08c379a00000000000000000000000000000000000000000000000000000000081526004016110d491906138f1565b60405180910390fd5b50600760008373ffffffffffffffffffffffffffffffffffffffff1673ffffffffffffffffffffffffffffffffffffffff16815260200190815260200160002060020160009054906101000a900460ff1661116d576040517f08c379a0000000000000000000000000000000000000000000000000000000008152600401611164906139b3565b60405180910390fd5b6001600760003373ffffffffffffffffffffffffffffffffffffffff1673ffffffffffffffffffffffffffffffffffffffff16815260200190815260200160002060000160009054906101000a900460ff1660ff161015611370576000600760003373ffffffffffffffffffffffffffffffffffffffff1673ffffffffffffffffffffffffffffffffffffffff168152602001908152602001600020905060018160000160006101000a81548160ff021916908360ff16021790555060008160000160016101000a81548160ff021916908360ff160217905550600960008154811061125c5761125b613faf565b5b9060005260206000200154816001018190555060008160020160006101000a81548160ff02191690831515021790555060008160020160016101000a81548160ff021916908315150217905550600067ffffffffffffffff8111156112c4576112c3613fde565b5b6040519080825280602002602001820160405280156112f25781602001602082028036833780820191505090505b5081600301908051906020019061130a9291906130a3565b506008339080600181540180825580915050600190039060005260206000200160009091909190916101000a81548173ffffffffffffffffffffffffffffffffffffffff021916908373ffffffffffffffffffffffffffffffffffffffff160217905550505b6000600760003373ffffffffffffffffffffffffffffffffffffffff1673ffffffffffffffffffffffffffffffffffffffff16815260200190815260200160002060010154111561146657600460009054906101000a900460ff16600a6113d79190613c7e565b816113e29190613d9c565b600760003373ffffffffffffffffffffffffffffffffffffffff1673ffffffffffffffffffffffffffffffffffffffff1681526020019081526020016000206001015414611465576040517f08c379a000000000000000000000000000000000000000000000000000000000815260040161145c90613993565b60405180910390fd5b5b600760008373ffffffffffffffffffffffffffffffffffffffff1673ffffffffffffffffffffffffffffffffffffffff16815260200190815260200160002060020160019054906101000a900460ff1661156557600460009054906101000a900460ff16600a6114d69190613c7e565b816114e19190613d9c565b600760008473ffffffffffffffffffffffffffffffffffffffff1673ffffffffffffffffffffffffffffffffffffffff1681526020019081526020016000206001015414611564576040517f08c379a000000000000000000000000000000000000000000000000000000000815260040161155b90613a93565b60405180910390fd5b5b6115ee816040518060400160405280601d81526020017f646f6e61746520616d6f756e7420657863656564732062616c616e6365000000815250600160003373ffffffffffffffffffffffffffffffffffffffff1673ffffffffffffffffffffffffffffffffffffffff16815260200190815260200160002054612b379092919063ffffffff16565b600160003373ffffffffffffffffffffffffffffffffffffffff1673ffffffffffffffffffffffffffffffffffffffff1681526020019081526020016000208190555061168381600160008573ffffffffffffffffffffffffffffffffffffffff1673ffffffffffffffffffffffffffffffffffffffff16815260200190815260200160002054612b9b90919063ffffffff16565b600160008473ffffffffffffffffffffffffffffffffffffffff1673ffffffffffffffffffffffffffffffffffffffff16815260200190815260200160002081905550600760003373ffffffffffffffffffffffffffffffffffffffff1673ffffffffffffffffffffffffffffffffffffffff168152602001908152602001600020600301829080600181540180825580915050600190039060005260206000200160009091909190916101000a81548173ffffffffffffffffffffffffffffffffffffffff021916908373ffffffffffffffffffffffffffffffffffffffff160217905550600760008373ffffffffffffffffffffffffffffffffffffffff1673ffffffffffffffffffffffffffffffffffffffff168152602001908152602001600020600401339080600181540180825580915050600190039060005260206000200160009091909190916101000a81548173ffffffffffffffffffffffffffffffffffffffff021916908373ffffffffffffffffffffffffffffffffffffffff1602179055506118726001600760003373ffffffffffffffffffffffffffffffffffffffff1673ffffffffffffffffffffffffffffffffffffffff16815260200190815260200160002060000160019054906101000a900460ff1660ff16612b9b90919063ffffffff16565b506118d96001600760008573ffffffffffffffffffffffffffffffffffffffff1673ffffffffffffffffffffffffffffffffffffffff16815260200190815260200160002060000160019054906101000a900460ff1660ff16612b9b90919063ffffffff16565b506001600760003373ffffffffffffffffffffffffffffffffffffffff1673ffffffffffffffffffffffffffffffffffffffff16815260200190815260200160002060000160019054906101000a900460ff1660ff161180156119895750600760003373ffffffffffffffffffffffffffffffffffffffff1673ffffffffffffffffffffffffffffffffffffffff16815260200190815260200160002060020160009054906101000a900460ff16155b15611ab4576001600760003373ffffffffffffffffffffffffffffffffffffffff1673ffffffffffffffffffffffffffffffffffffffff16815260200190815260200160002060020160006101000a81548160ff0219169083151502179055506000600760003373ffffffffffffffffffffffffffffffffffffffff1673ffffffffffffffffffffffffffffffffffffffff16815260200190815260200160002060000160016101000a81548160ff021916908360ff1602179055507f7ee9b70bf129b91a237044ce07c93c79f5562b96b53c04f7edaf7c9d6711f3d833604051611a749190613877565b60405180910390a17f29acb7f318a71641200074a70933a3d3599fb0981054bd43921bb1df4d4c7c8b33604051611aab9190613877565b60405180910390a15b6003600760008473ffffffffffffffffffffffffffffffffffffffff1673ffffffffffffffffffffffffffffffffffffffff16815260200190815260200160002060000160019054906101000a900460ff1660ff16118015611b635750600760008373ffffffffffffffffffffffffffffffffffffffff1673ffffffffffffffffffffffffffffffffffffffff16815260200190815260200160002060020160019054906101000a900460ff16155b15611d60576000600760008473ffffffffffffffffffffffffffffffffffffffff1673ffffffffffffffffffffffffffffffffffffffff16815260200190815260200160002060020160006101000a81548160ff0219169083151502179055506000600760008473ffffffffffffffffffffffffffffffffffffffff1673ffffffffffffffffffffffffffffffffffffffff16815260200190815260200160002060000160016101000a81548160ff021916908360ff16021790555060005b600980549050811015611caf5760098181548110611c4357611c42613faf565b5b9060005260206000200154600760008573ffffffffffffffffffffffffffffffffffffffff1673ffffffffffffffffffffffffffffffffffffffff168152602001908152602001600020600101541415611c9c57611caf565b8080611ca790613ee4565b915050611c22565b6009611cc5600183612b9b90919063ffffffff16565b81548110611cd657611cd5613faf565b5b9060005260206000200154600760008573ffffffffffffffffffffffffffffffffffffffff1673ffffffffffffffffffffffffffffffffffffffff168152602001908152602001600020600101819055507f29acb7f318a71641200074a70933a3d3599fb0981054bd43921bb1df4d4c7c8b33604051611d569190613877565b60405180910390a1505b7fad90f9cb5cd314bc38aa9a4c5626f13b621c242cc2b20822ec54a9365e54202a33604051611d8f9190613877565b60405180910390a17fad90f9cb5cd314bc38aa9a4c5626f13b621c242cc2b20822ec54a9365e54202a82604051611dc69190613877565b60405180910390a15050565b60606008805480602002602001604051908101604052809291908181526020018280548015611e5657602002820191906000526020600020905b8160009054906101000a900473ffffffffffffffffffffffffffffffffffffffff1673ffffffffffffffffffffffffffffffffffffffff1681526020019060010190808311611e0c575b5050505050905090565b6000611e6a611f3f565b905090565b6060600760008373ffffffffffffffffffffffffffffffffffffffff1673ffffffffffffffffffffffffffffffffffffffff168152602001908152602001600020600401805480602002602001604051908101604052809291908181526020018280548015611f3357602002820191906000526020600020905b8160009054906101000a900473ffffffffffffffffffffffffffffffffffffffff1673ffffffffffffffffffffffffffffffffffffffff1681526020019060010190808311611ee9575b50505050509050919050565b60008060009054906101000a900473ffffffffffffffffffffffffffffffffffffffff16905090565b606060058054611f7790613eb2565b80601f0160208091040260200160405190810160405280929190818152602001828054611fa390613eb2565b8015611ff05780601f10611fc557610100808354040283529160200191611ff0565b820191906000526020600020905b815481529060010190602001808311611fd357829003601f168201915b5050505050905090565b60006120046126d6565b73ffffffffffffffffffffffffffffffffffffffff1660008054906101000a900473ffffffffffffffffffffffffffffffffffffffff1673ffffffffffffffffffffffffffffffffffffffff1614612091576040517f08c379a000000000000000000000000000000000000000000000000000000000815260040161208890613a13565b60405180910390fd5b6120a261209c6126d6565b83612dec565b60019050919050565b600061216e6120b86126d6565b846121698560405180606001604052806025815260200161444560259139600260006120e26126d6565b73ffffffffffffffffffffffffffffffffffffffff1673ffffffffffffffffffffffffffffffffffffffff16815260200190815260200160002060008a73ffffffffffffffffffffffffffffffffffffffff1673ffffffffffffffffffffffffffffffffffffffff16815260200190815260200160002054612b379092919063ffffffff16565b6126de565b6001905092915050565b600061218c6121856126d6565b84846128a9565b6001905092915050565b6060600760008373ffffffffffffffffffffffffffffffffffffffff1673ffffffffffffffffffffffffffffffffffffffff16815260200190815260200160002060030180548060200260200160405190810160405280929190818152602001828054801561225a57602002820191906000526020600020905b8160009054906101000a900473ffffffffffffffffffffffffffffffffffffffff1673ffffffffffffffffffffffffffffffffffffffff1681526020019060010190808311612210575b50505050509050919050565b61226e6126d6565b73ffffffffffffffffffffffffffffffffffffffff1660008054906101000a900473ffffffffffffffffffffffffffffffffffffffff1673ffffffffffffffffffffffffffffffffffffffff16146122fb576040517f08c379a00000000000000000000000000000000000000000000000000000000081526004016122f290613a13565b60405180910390fd5b6000600760008373ffffffffffffffffffffffffffffffffffffffff1673ffffffffffffffffffffffffffffffffffffffff168152602001908152602001600020905060018160000160006101000a81548160ff021916908360ff16021790555060018160020160006101000a81548160ff02191690831515021790555060018160020160016101000a81548160ff021916908315150217905550600067ffffffffffffffff8111156123b1576123b0613fde565b5b6040519080825280602002602001820160405280156123df5781602001602082028036833780820191505090505b508160030190805190602001906123f79291906130a3565b50600067ffffffffffffffff81111561241357612412613fde565b5b6040519080825280602002602001820160405280156124415781602001602082028036833780820191505090505b508160040190805190602001906124599291906130a3565b506008829080600181540180825580915050600190039060005260206000200160009091909190916101000a81548173ffffffffffffffffffffffffffffffffffffffff021916908373ffffffffffffffffffffffffffffffffffffffff1602179055507f7ee9b70bf129b91a237044ce07c93c79f5562b96b53c04f7edaf7c9d6711f3d8826040516124ec9190613877565b60405180910390a15050565b6060600980548060200260200160405190810160405280929190818152602001828054801561254657602002820191906000526020600020905b815481526020019060010190808311612532575b5050505050905090565b6000600260008473ffffffffffffffffffffffffffffffffffffffff1673ffffffffffffffffffffffffffffffffffffffff16815260200190815260200160002060008373ffffffffffffffffffffffffffffffffffffffff1673ffffffffffffffffffffffffffffffffffffffff16815260200190815260200160002054905092915050565b6125df6126d6565b73ffffffffffffffffffffffffffffffffffffffff1660008054906101000a900473ffffffffffffffffffffffffffffffffffffffff1673ffffffffffffffffffffffffffffffffffffffff161461266c576040517f08c379a000000000000000000000000000000000000000000000000000000000815260040161266390613a13565b60405180910390fd5b61267581612f76565b50565b600080600760008473ffffffffffffffffffffffffffffffffffffffff1673ffffffffffffffffffffffffffffffffffffffff16815260200190815260200160002060000160009054906101000a900460ff1660ff16119050919050565b600033905090565b600073ffffffffffffffffffffffffffffffffffffffff168373ffffffffffffffffffffffffffffffffffffffff16141561274e576040517f08c379a000000000000000000000000000000000000000000000000000000000815260040161274590613933565b60405180910390fd5b600073ffffffffffffffffffffffffffffffffffffffff168273ffffffffffffffffffffffffffffffffffffffff1614156127be576040517f08c379a00000000000000000000000000000000000000000000000000000000081526004016127b590613ab3565b60405180910390fd5b80600260008573ffffffffffffffffffffffffffffffffffffffff1673ffffffffffffffffffffffffffffffffffffffff16815260200190815260200160002060008473ffffffffffffffffffffffffffffffffffffffff1673ffffffffffffffffffffffffffffffffffffffff168152602001908152602001600020819055508173ffffffffffffffffffffffffffffffffffffffff168373ffffffffffffffffffffffffffffffffffffffff167f8c5be1e5ebec7d5bd14f71427d1e84f3dd0314c0f7b2291e5b200ac8c7c3b9258360405161289c9190613af5565b60405180910390a3505050565b600073ffffffffffffffffffffffffffffffffffffffff168373ffffffffffffffffffffffffffffffffffffffff161415612919576040517f08c379a000000000000000000000000000000000000000000000000000000000815260040161291090613913565b60405180910390fd5b600073ffffffffffffffffffffffffffffffffffffffff168273ffffffffffffffffffffffffffffffffffffffff161415612989576040517f08c379a000000000000000000000000000000000000000000000000000000000815260040161298090613a53565b60405180910390fd5b6129f58160405180606001604052806026815260200161441f60269139600160008773ffffffffffffffffffffffffffffffffffffffff1673ffffffffffffffffffffffffffffffffffffffff16815260200190815260200160002054612b379092919063ffffffff16565b600160008573ffffffffffffffffffffffffffffffffffffffff1673ffffffffffffffffffffffffffffffffffffffff16815260200190815260200160002081905550612a8a81600160008573ffffffffffffffffffffffffffffffffffffffff1673ffffffffffffffffffffffffffffffffffffffff16815260200190815260200160002054612b9b90919063ffffffff16565b600160008473ffffffffffffffffffffffffffffffffffffffff1673ffffffffffffffffffffffffffffffffffffffff168152602001908152602001600020819055508173ffffffffffffffffffffffffffffffffffffffff168373ffffffffffffffffffffffffffffffffffffffff167fddf252ad1be2c89b69c2b068fc378daa952ba7f163c4a11628f55a4df523b3ef83604051612b2a9190613af5565b60405180910390a3505050565b6000838311158290612b7f576040517f08c379a0000000000000000000000000000000000000000000000000000000008152600401612b7691906138f1565b60405180910390fd5b5060008385612b8e9190613df6565b9050809150509392505050565b6000808284612baa9190613bd5565b905083811015612bef576040517f08c379a0000000000000000000000000000000000000000000000000000000008152600401612be690613973565b60405180910390fd5b8091505092915050565b80600760008473ffffffffffffffffffffffffffffffffffffffff1673ffffffffffffffffffffffffffffffffffffffff16815260200190815260200160002060020160006101000a81548160ff0219169083151502179055505050565b600080600760008573ffffffffffffffffffffffffffffffffffffffff1673ffffffffffffffffffffffffffffffffffffffff16815260200190815260200160002060000160009054906101000a900460ff1660ff161115612de15760006001905060005b600760008673ffffffffffffffffffffffffffffffffffffffff1673ffffffffffffffffffffffffffffffffffffffff16815260200190815260200160002060030180549050811015612dd7578373ffffffffffffffffffffffffffffffffffffffff16600760008773ffffffffffffffffffffffffffffffffffffffff1673ffffffffffffffffffffffffffffffffffffffff1681526020019081526020016000206003018281548110612d7457612d73613faf565b5b9060005260206000200160009054906101000a900473ffffffffffffffffffffffffffffffffffffffff1673ffffffffffffffffffffffffffffffffffffffff161415612dc45760009150612dd7565b8080612dcf90613ee4565b915050612cbc565b5080915050612de6565b600190505b92915050565b600073ffffffffffffffffffffffffffffffffffffffff168273ffffffffffffffffffffffffffffffffffffffff161415612e5c576040517f08c379a0000000000000000000000000000000000000000000000000000000008152600401612e53906139f3565b60405180910390fd5b612e7181600354612b9b90919063ffffffff16565b600381905550612ec981600160008573ffffffffffffffffffffffffffffffffffffffff1673ffffffffffffffffffffffffffffffffffffffff16815260200190815260200160002054612b9b90919063ffffffff16565b600160008473ffffffffffffffffffffffffffffffffffffffff1673ffffffffffffffffffffffffffffffffffffffff168152602001908152602001600020819055508173ffffffffffffffffffffffffffffffffffffffff16600073ffffffffffffffffffffffffffffffffffffffff167fddf252ad1be2c89b69c2b068fc378daa952ba7f163c4a11628f55a4df523b3ef83604051612f6a9190613af5565b60405180910390a35050565b600073ffffffffffffffffffffffffffffffffffffffff168173ffffffffffffffffffffffffffffffffffffffff161415612fe6576040517f08c379a0000000000000000000000000000000000000000000000000000000008152600401612fdd90613953565b60405180910390fd5b8073ffffffffffffffffffffffffffffffffffffffff1660008054906101000a900473ffffffffffffffffffffffffffffffffffffffff1673ffffffffffffffffffffffffffffffffffffffff167f8be0079c531659141344cd1fd0a4f28419497f9722a3daafe3b4186f6b6457e060405160405180910390a3806000806101000a81548173ffffffffffffffffffffffffffffffffffffffff021916908373ffffffffffffffffffffffffffffffffffffffff16021790555050565b82805482825590600052602060002090810192821561311c579160200282015b8281111561311b5782518260006101000a81548173ffffffffffffffffffffffffffffffffffffffff021916908373ffffffffffffffffffffffffffffffffffffffff160217905550916020019190600101906130c3565b5b5090506131299190613174565b5090565b6040518060e00160405280600060ff168152602001600060ff1681526020016000815260200160001515815260200160001515815260200160608152602001606081525090565b5b8082111561318d576000816000905550600101613175565b5090565b6000813590506131a0816143b1565b92915050565b6000813590506131b5816143c8565b92915050565b6000813590506131ca816143df565b92915050565b6000602082840312156131e6576131e561400d565b5b60006131f484828501613191565b91505092915050565b600080604083850312156132145761321361400d565b5b600061322285828601613191565b925050602061323385828601613191565b9150509250929050565b6000806000606084860312156132565761325561400d565b5b600061326486828701613191565b935050602061327586828701613191565b9250506040613286868287016131bb565b9150509250925092565b6000806000606084860312156132a9576132a861400d565b5b60006132b786828701613191565b93505060206132c8868287016131a6565b92505060406132d9868287016131a6565b9150509250925092565b600080604083850312156132fa576132f961400d565b5b600061330885828601613191565b9250506020613319858286016131bb565b9150509250929050565b6000602082840312156133395761333861400d565b5b6000613347848285016131bb565b91505092915050565b600061335c8383613380565b60208301905092915050565b600061337483836137f9565b60208301905092915050565b61338981613e2a565b82525050565b61339881613e2a565b82525050565b6133af6133aa82613e2a565b613f2d565b82525050565b60006133c082613b4b565b6133ca8185613b86565b93506133d583613b2b565b8060005b838110156134065781516133ed8882613350565b97506133f883613b6c565b9250506001810190506133d9565b5085935050505092915050565b600061341e82613b4b565b6134288185613b97565b935061343383613b2b565b8060005b8381101561346457815161344b8882613350565b975061345683613b6c565b925050600181019050613437565b5085935050505092915050565b600061347c82613b56565b6134868185613ba8565b935061349183613b3b565b8060005b838110156134c25781516134a98882613368565b97506134b483613b79565b925050600181019050613495565b5085935050505092915050565b6134d881613e3c565b82525050565b6134e781613e3c565b82525050565b60006134f882613b61565b6135028185613bb9565b9350613512818560208601613e7f565b61351b81614012565b840191505092915050565b6000613533602583613bb9565b915061353e8261403d565b604082019050919050565b6000613556602483613bb9565b91506135618261408c565b604082019050919050565b6000613579602683613bb9565b9150613584826140db565b604082019050919050565b600061359c601b83613bb9565b91506135a78261412a565b602082019050919050565b60006135bf601283613bca565b91506135ca82614153565b601282019050919050565b60006135e2601f83613bb9565b91506135ed8261417c565b602082019050919050565b6000613605601883613bb9565b9150613610826141a5565b602082019050919050565b6000613628600983613bb9565b9150613633826141ce565b602082019050919050565b600061364b600483613bca565b9150613656826141f7565b600482019050919050565b600061366e601f83613bb9565b915061367982614220565b602082019050919050565b6000613691602083613bb9565b915061369c82614249565b602082019050919050565b60006136b4601a83613bb9565b91506136bf82614272565b602082019050919050565b60006136d7602383613bb9565b91506136e28261429b565b604082019050919050565b60006136fa601083613bb9565b9150613705826142ea565b602082019050919050565b600061371d602483613bb9565b915061372882614313565b604082019050919050565b6000613740602283613bb9565b915061374b82614362565b604082019050919050565b600060e08301600083015161376e6000860182613817565b5060208301516137816020860182613817565b50604083015161379460408601826137f9565b5060608301516137a760608601826134cf565b5060808301516137ba60808601826134cf565b5060a083015184820360a08601526137d282826133b5565b91505060c083015184820360c08601526137ec82826133b5565b9150508091505092915050565b61380281613e68565b82525050565b61381181613e68565b82525050565b61382081613e72565b82525050565b61382f81613e72565b82525050565b6000613840826135b2565b915061384c828561339e565b60148201915061385b8261363e565b9150613867828461339e565b6014820191508190509392505050565b600060208201905061388c600083018461338f565b92915050565b600060208201905081810360008301526138ac8184613413565b905092915050565b600060208201905081810360008301526138ce8184613471565b905092915050565b60006020820190506138eb60008301846134de565b92915050565b6000602082019050818103600083015261390b81846134ed565b905092915050565b6000602082019050818103600083015261392c81613526565b9050919050565b6000602082019050818103600083015261394c81613549565b9050919050565b6000602082019050818103600083015261396c8161356c565b9050919050565b6000602082019050818103600083015261398c8161358f565b9050919050565b600060208201905081810360008301526139ac816135d5565b9050919050565b600060208201905081810360008301526139cc816135f8565b9050919050565b600060208201905081810360008301526139ec8161361b565b9050919050565b60006020820190508181036000830152613a0c81613661565b9050919050565b60006020820190508181036000830152613a2c81613684565b9050919050565b60006020820190508181036000830152613a4c816136a7565b9050919050565b60006020820190508181036000830152613a6c816136ca565b9050919050565b60006020820190508181036000830152613a8c816136ed565b9050919050565b60006020820190508181036000830152613aac81613710565b9050919050565b60006020820190508181036000830152613acc81613733565b9050919050565b60006020820190508181036000830152613aed8184613756565b905092915050565b6000602082019050613b0a6000830184613808565b92915050565b6000602082019050613b256000830184613826565b92915050565b6000819050602082019050919050565b6000819050602082019050919050565b600081519050919050565b600081519050919050565b600081519050919050565b6000602082019050919050565b6000602082019050919050565b600082825260208201905092915050565b600082825260208201905092915050565b600082825260208201905092915050565b600082825260208201905092915050565b600081905092915050565b6000613be082613e68565b9150613beb83613e68565b9250827fffffffffffffffffffffffffffffffffffffffffffffffffffffffffffffffff03821115613c2057613c1f613f51565b5b828201905092915050565b6000808291508390505b6001851115613c7557808604811115613c5157613c50613f51565b5b6001851615613c605780820291505b8081029050613c6e85614030565b9450613c35565b94509492505050565b6000613c8982613e68565b9150613c9483613e72565b9250613cc17fffffffffffffffffffffffffffffffffffffffffffffffffffffffffffffffff8484613cc9565b905092915050565b600082613cd95760019050613d95565b81613ce75760009050613d95565b8160018114613cfd5760028114613d0757613d36565b6001915050613d95565b60ff841115613d1957613d18613f51565b5b8360020a915084821115613d3057613d2f613f51565b5b50613d95565b5060208310610133831016604e8410600b8410161715613d6b5782820a905083811115613d6657613d65613f51565b5b613d95565b613d788484846001613c2b565b92509050818404811115613d8f57613d8e613f51565b5b81810290505b9392505050565b6000613da782613e68565b9150613db283613e68565b9250817fffffffffffffffffffffffffffffffffffffffffffffffffffffffffffffffff0483118215151615613deb57613dea613f51565b5b828202905092915050565b6000613e0182613e68565b9150613e0c83613e68565b925082821015613e1f57613e1e613f51565b5b828203905092915050565b6000613e3582613e48565b9050919050565b60008115159050919050565b600073ffffffffffffffffffffffffffffffffffffffff82169050919050565b6000819050919050565b600060ff82169050919050565b60005b83811015613e9d578082015181840152602081019050613e82565b83811115613eac576000848401525b50505050565b60006002820490506001821680613eca57607f821691505b60208210811415613ede57613edd613f80565b5b50919050565b6000613eef82613e68565b91507fffffffffffffffffffffffffffffffffffffffffffffffffffffffffffffffff821415613f2257613f21613f51565b5b600182019050919050565b6000613f3882613f3f565b9050919050565b6000613f4a82614023565b9050919050565b7f4e487b7100000000000000000000000000000000000000000000000000000000600052601160045260246000fd5b7f4e487b7100000000000000000000000000000000000000000000000000000000600052602260045260246000fd5b7f4e487b7100000000000000000000000000000000000000000000000000000000600052603260045260246000fd5b7f4e487b7100000000000000000000000000000000000000000000000000000000600052604160045260246000fd5b600080fd5b6000601f19601f8301169050919050565b60008160601b9050919050565b60008160011c9050919050565b7f42455032303a207472616e736665722066726f6d20746865207a65726f20616460008201527f6472657373000000000000000000000000000000000000000000000000000000602082015250565b7f42455032303a20617070726f76652066726f6d20746865207a65726f2061646460008201527f7265737300000000000000000000000000000000000000000000000000000000602082015250565b7f4f776e61626c653a206e6577206f776e657220697320746865207a65726f206160008201527f6464726573730000000000000000000000000000000000000000000000000000602082015250565b7f536166654d6174683a206164646974696f6e206f766572666c6f770000000000600082015250565b7f476176652074686973206163636f756e74200000000000000000000000000000600082015250565b7f506c656173652073656c65637420726967687420726f6f6d20616d6f756e7400600082015250565b7f52656365697665722063616e206e6f7420726563656976650000000000000000600082015250565b7f53656c662073656e640000000000000000000000000000000000000000000000600082015250565b7f20746f2000000000000000000000000000000000000000000000000000000000600082015250565b7f42455032303a206d696e7420746f20746865207a65726f206164647265737300600082015250565b7f4f776e61626c653a2063616c6c6572206973206e6f7420746865206f776e6572600082015250565b7f496e73756666696369656e7420746f6b656e2062616c616e6365000000000000600082015250565b7f42455032303a207472616e7366657220746f20746865207a65726f206164647260008201527f6573730000000000000000000000000000000000000000000000000000000000602082015250565b7f43616e206e6f742067697665206e6f7700000000000000000000000000000000600082015250565b7f506c656173652073656c656374207269676874207573657220726f6f6d20616d60008201527f6f756e7400000000000000000000000000000000000000000000000000000000602082015250565b7f42455032303a20617070726f766520746f20746865207a65726f20616464726560008201527f7373000000000000000000000000000000000000000000000000000000000000602082015250565b6143ba81613e2a565b81146143c557600080fd5b50565b6143d181613e3c565b81146143dc57600080fd5b50565b6143e881613e68565b81146143f357600080fd5b5056fe42455032303a207472616e7366657220616d6f756e74206578636565647320616c6c6f77616e636542455032303a207472616e7366657220616d6f756e7420657863656564732062616c616e636542455032303a2064656372656173656420616c6c6f77616e63652062656c6f77207a65726fa2646970667358221220e8d15b47ef833bede9abd1e40ca22f328191d87e31b20c661a5bc619b297883a64736f6c63430008060033",
  "immutableReferences": {},
  "source": "// SPDX-License-Identifier: MIT\npragma solidity ^0.8.0;\n\ninterface IBEP20 {\n    /**\n     * @dev Returns the amount of tokens in existence.\n     */\n    function totalSupply() external view returns (uint256);\n\n    /**\n     * @dev Returns the token decimals.\n     */\n    function decimals() external view returns (uint8);\n\n    /**\n     * @dev Returns the token symbol.\n     */\n    function symbol() external view returns (string memory);\n\n    /**\n     * @dev Returns the token name.\n     */\n    function name() external view returns (string memory);\n\n    /**\n     * @dev Returns the bep token owner.\n     */\n    function getOwner() external view returns (address);\n\n    /**\n     * @dev Returns the amount of tokens owned by `account`.\n     */\n    function balanceOf(address account) external view returns (uint256);\n\n    /**\n     * @dev Moves `amount` tokens from the caller's account to `recipient`.\n     *\n     * Returns a boolean value indicating whether the operation succeeded.\n     *\n     * Emits a {Transfer} event.\n     */\n    function transfer(address recipient, uint256 amount)\n        external\n        returns (bool);\n\n    function donateToken(address recipient, uint256 amount) external;\n\n    /**\n     * @dev Returns the remaining number of tokens that `spender` will be\n     * allowed to spend on behalf of `owner` through {transferFrom}. This is\n     * zero by default.\n     *\n     * This value changes when {approve} or {transferFrom} are called.\n     */\n    function allowance(address _owner, address spender)\n        external\n        view\n        returns (uint256);\n\n    /**\n     * @dev Sets `amount` as the allowance of `spender` over the caller's tokens.\n     *\n     * Returns a boolean value indicating whether the operation succeeded.\n     *\n     * IMPORTANT: Beware that changing an allowance with this method brings the risk\n     * that someone may use both the old and the new allowance by unfortunate\n     * transaction ordering. One possible solution to mitigate this race\n     * condition is to first reduce the spender's allowance to 0 and set the\n     * desired value afterwards:\n     * https://github.com/ethereum/EIPs/issues/20#issuecomment-263524729\n     *\n     * Emits an {Approval} event.\n     */\n    function approve(address spender, uint256 amount) external returns (bool);\n\n    /**\n     * @dev Moves `amount` tokens from `sender` to `recipient` using the\n     * allowance mechanism. `amount` is then deducted from the caller's\n     * allowance.\n     *\n     * Returns a boolean value indicating whether the operation succeeded.\n     *\n     * Emits a {Transfer} event.\n     */\n    function transferFrom(\n        address sender,\n        address recipient,\n        uint256 amount\n    ) external returns (bool);\n\n    /**\n     * @dev Emitted when `value` tokens are moved from one account (`from`) to\n     * another (`to`).\n     *\n     * Note that `value` may be zero.\n     */\n    event Transfer(address indexed from, address indexed to, uint256 value);\n\n    /**\n     * @dev Emitted when the allowance of a `spender` for an `owner` is set by\n     * a call to {approve}. `value` is the new allowance.\n     */\n    event Approval(\n        address indexed owner,\n        address indexed spender,\n        uint256 value\n    );\n}\n\n/*\n * @dev Provides information about the current execution context, including the\n * sender of the transaction and its data. While these are generally available\n * via msg.sender and msg.data, they should not be accessed in such a direct\n * manner, since when dealing with GSN meta-transactions the account sending and\n * paying for execution may not be the actual sender (as far as an application\n * is concerned).\n *\n * This contract is only required for intermediate, library-like contracts.\n */\nabstract contract Context {\n    function _msgSender() internal view virtual returns (address) {\n        return msg.sender;\n    }\n\n    function _msgData() internal view virtual returns (bytes calldata) {\n        this; // silence state mutability warning without generating bytecode - see https://github.com/ethereum/solidity/issues/2691\n        return msg.data;\n    }\n}\n\n/**\n * @dev Wrappers over Solidity's arithmetic operations with added overflow\n * checks.\n *\n * Arithmetic operations in Solidity wrap on overflow. This can easily result\n * in bugs, because programmers usually assume that an overflow raises an\n * error, which is the standard behavior in high level programming languages.\n * `SafeMath` restores this intuition by reverting the transaction when an\n * operation overflows.\n *\n * Using this library instead of the unchecked operations eliminates an entire\n * class of bugs, so it's recommended to use it always.\n */\nlibrary SafeMath {\n    /**\n     * @dev Returns the addition of two unsigned integers, reverting on\n     * overflow.\n     *\n     * Counterpart to Solidity's `+` operator.\n     *\n     * Requirements:\n     * - Addition cannot overflow.\n     */\n    function add(uint256 a, uint256 b) internal pure returns (uint256) {\n        uint256 c = a + b;\n        require(c >= a, \"SafeMath: addition overflow\");\n\n        return c;\n    }\n\n    /**\n     * @dev Returns the subtraction of two unsigned integers, reverting on\n     * overflow (when the result is negative).\n     *\n     * Counterpart to Solidity's `-` operator.\n     *\n     * Requirements:\n     * - Subtraction cannot overflow.\n     */\n    function sub(uint256 a, uint256 b) internal pure returns (uint256) {\n        return sub(a, b, \"SafeMath: subtraction overflow\");\n    }\n\n    /**\n     * @dev Returns the subtraction of two unsigned integers, reverting with custom message on\n     * overflow (when the result is negative).\n     *\n     * Counterpart to Solidity's `-` operator.\n     *\n     * Requirements:\n     * - Subtraction cannot overflow.\n     */\n    function sub(\n        uint256 a,\n        uint256 b,\n        string memory errorMessage\n    ) internal pure returns (uint256) {\n        require(b <= a, errorMessage);\n        uint256 c = a - b;\n\n        return c;\n    }\n\n    /**\n     * @dev Returns the multiplication of two unsigned integers, reverting on\n     * overflow.\n     *\n     * Counterpart to Solidity's `*` operator.\n     *\n     * Requirements:\n     * - Multiplication cannot overflow.\n     */\n    function mul(uint256 a, uint256 b) internal pure returns (uint256) {\n        // Gas optimization: this is cheaper than requiring 'a' not being zero, but the\n        // benefit is lost if 'b' is also tested.\n        // See: https://github.com/OpenZeppelin/openzeppelin-contracts/pull/522\n        if (a == 0) {\n            return 0;\n        }\n\n        uint256 c = a * b;\n        require(c / a == b, \"SafeMath: multiplication overflow\");\n\n        return c;\n    }\n\n    /**\n     * @dev Returns the integer division of two unsigned integers. Reverts on\n     * division by zero. The result is rounded towards zero.\n     *\n     * Counterpart to Solidity's `/` operator. Note: this function uses a\n     * `revert` opcode (which leaves remaining gas untouched) while Solidity\n     * uses an invalid opcode to revert (consuming all remaining gas).\n     *\n     * Requirements:\n     * - The divisor cannot be zero.\n     */\n    function div(uint256 a, uint256 b) internal pure returns (uint256) {\n        return div(a, b, \"SafeMath: division by zero\");\n    }\n\n    /**\n     * @dev Returns the integer division of two unsigned integers. Reverts with custom message on\n     * division by zero. The result is rounded towards zero.\n     *\n     * Counterpart to Solidity's `/` operator. Note: this function uses a\n     * `revert` opcode (which leaves remaining gas untouched) while Solidity\n     * uses an invalid opcode to revert (consuming all remaining gas).\n     *\n     * Requirements:\n     * - The divisor cannot be zero.\n     */\n    function div(\n        uint256 a,\n        uint256 b,\n        string memory errorMessage\n    ) internal pure returns (uint256) {\n        // Solidity only automatically asserts when dividing by 0\n        require(b > 0, errorMessage);\n        uint256 c = a / b;\n        // assert(a == b * c + a % b); // There is no case in which this doesn't hold\n\n        return c;\n    }\n\n    /**\n     * @dev Returns the remainder of dividing two unsigned integers. (unsigned integer modulo),\n     * Reverts when dividing by zero.\n     *\n     * Counterpart to Solidity's `%` operator. This function uses a `revert`\n     * opcode (which leaves remaining gas untouched) while Solidity uses an\n     * invalid opcode to revert (consuming all remaining gas).\n     *\n     * Requirements:\n     * - The divisor cannot be zero.\n     */\n    function mod(uint256 a, uint256 b) internal pure returns (uint256) {\n        return mod(a, b, \"SafeMath: modulo by zero\");\n    }\n\n    /**\n     * @dev Returns the remainder of dividing two unsigned integers. (unsigned integer modulo),\n     * Reverts with custom message when dividing by zero.\n     *\n     * Counterpart to Solidity's `%` operator. This function uses a `revert`\n     * opcode (which leaves remaining gas untouched) while Solidity uses an\n     * invalid opcode to revert (consuming all remaining gas).\n     *\n     * Requirements:\n     * - The divisor cannot be zero.\n     */\n    function mod(\n        uint256 a,\n        uint256 b,\n        string memory errorMessage\n    ) internal pure returns (uint256) {\n        require(b != 0, errorMessage);\n        return a % b;\n    }\n}\n\n/**\n * @dev Contract module which provides a basic access control mechanism, where\n * there is an account (an owner) that can be granted exclusive access to\n * specific functions.\n *\n * By default, the owner account will be the one that deploys the contract. This\n * can later be changed with {transferOwnership}.\n *\n * This module is used through inheritance. It will make available the modifier\n * `onlyOwner`, which can be applied to your functions to restrict their use to\n * the owner.\n */\nabstract contract Ownable is Context {\n    address private _owner;\n\n    event OwnershipTransferred(\n        address indexed previousOwner,\n        address indexed newOwner\n    );\n\n    /**\n     * @dev Initializes the contract setting the deployer as the initial owner.\n     */\n    constructor() {\n        address msgSender = _msgSender();\n        _owner = msgSender;\n        emit OwnershipTransferred(address(0), msgSender);\n    }\n\n    /**\n     * @dev Returns the address of the current owner.\n     */\n    function owner() public view returns (address) {\n        return _owner;\n    }\n\n    /**\n     * @dev Throws if called by any account other than the owner.\n     */\n    modifier onlyOwner() {\n        require(_owner == _msgSender(), \"Ownable: caller is not the owner\");\n        _;\n    }\n\n    /**\n     * @dev Leaves the contract without owner. It will not be possible to call\n     * `onlyOwner` functions anymore. Can only be called by the current owner.\n     *\n     * NOTE: Renouncing ownership will leave the contract without an owner,\n     * thereby removing any functionality that is only available to the owner.\n     */\n    function renounceOwnership() public onlyOwner {\n        emit OwnershipTransferred(_owner, address(0));\n        _owner = address(0);\n    }\n\n    /**\n     * @dev Transfers ownership of the contract to a new account (`newOwner`).\n     * Can only be called by the current owner.\n     */\n    function transferOwnership(address newOwner) public onlyOwner {\n        _transferOwnership(newOwner);\n    }\n\n    /**\n     * @dev Transfers ownership of the contract to a new account (`newOwner`).\n     */\n    function _transferOwnership(address newOwner) internal {\n        require(\n            newOwner != address(0),\n            \"Ownable: new owner is the zero address\"\n        );\n        emit OwnershipTransferred(_owner, newOwner);\n        _owner = newOwner;\n    }\n}\n\ncontract BEP20Token is Context, IBEP20, Ownable {\n    using SafeMath for uint256;\n    using SafeMath for uint8;\n\n    mapping(address => uint256) private _balances;\n\n    mapping(address => mapping(address => uint256)) private _allowances;\n\n    uint256 private _totalSupply;\n    uint8 private _decimals = 1;\n    string private _symbol;\n    string private _name;\n\n    constructor() {\n        _name = \"Game Token\";\n        _symbol = \"GAME\";\n        _decimals = 1;\n        _totalSupply = 10 * (10**6) * (10**1);\n        _balances[msg.sender] = _totalSupply;\n\n        emit Transfer(address(0), msg.sender, _totalSupply);\n    }\n\n    event NewUser(address userId);\n    event ChangeStatus(address userId);\n    event DonateUser(address userId);\n\n    struct User {\n        uint8 index;\n        uint8 marked;\n        uint256 room;\n        bool isReceive;\n        bool isCreated; // flag is bot to init\n        address[] donated; // flag interacted users\n        address[] got; // flag interacted users\n    }\n\n    mapping(address => User) gameUser;\n    address[] gameAddress;\n\n    uint256[] rooms = [50 * (10 ** _decimals), 100 * (10 ** _decimals), 200 * (10 ** _decimals), 500 * (10 ** _decimals), 1000 * (10 ** _decimals)];\n\n    function createUser(address _address) external onlyOwner {\n        User storage userCreated = gameUser[_address];\n        userCreated.index = 1;\n        userCreated.isReceive = true;\n        userCreated.isCreated = true;\n        userCreated.donated = new address[](0);\n        userCreated.got = new address[](0);\n\n        gameAddress.push(_address);\n        emit NewUser(_address);\n    }\n\n    function setUser(\n        address _address,\n        bool _state,\n        bool _isEmpty\n    ) external onlyOwner {\n        setUserState(_address, _state);\n        if (_isEmpty) {\n            gameUser[_address].donated = new address[](0);\n            gameUser[_address].got = new address[](0);\n        }\n    }\n\n    function getUser(address _address) external view returns (User memory) {\n        return gameUser[_address];\n    }\n\n    function getRooms() external view returns (uint256[] memory) {\n        return rooms;\n    }\n\n    function addRoom(uint256 _amount) external onlyOwner {\n        rooms.push(_amount);\n    }\n\n    function setUserState(address _address, bool _state) internal {\n        gameUser[_address].isReceive = _state;\n    }\n\n    function checkExistsUser(address _address) public view returns (bool) {\n        return gameUser[_address].index > 0;\n    }\n\n    function getUserState(address _address) public view returns (bool) {\n        return gameUser[_address].isReceive;\n    }\n\n    function getUserDonated(address _address)\n        public\n        view\n        returns (address[] memory)\n    {\n        return gameUser[_address].donated;\n    }\n\n    function getUserGot(address _address)\n        public\n        view\n        returns (address[] memory)\n    {\n        return gameUser[_address].got;\n    }\n\n    function donateToken(address _recipient, uint256 _amount)\n        external\n        override\n    {\n        require((msg.sender != _recipient), \"Self send\");\n        require(\n            (_balances[msg.sender] >= _amount),\n            \"Insufficient token balance\"\n        );\n        require(\n            (gameUser[msg.sender].marked < 2 &&\n                !gameUser[msg.sender].isReceive),\n            \"Can not give now\"\n        );\n        require(\n            _isDonated(msg.sender, _recipient),\n            string(abi.encodePacked(\"Gave this account \", msg.sender, \" to \", _recipient))\n        );\n        require(gameUser[_recipient].isReceive, \"Receiver can not receive\");\n\n        if (gameUser[msg.sender].index < 1) {\n            User storage userCreated = gameUser[msg.sender];\n            userCreated.index = 1;\n            userCreated.marked = 0;\n            userCreated.room = rooms[0];\n            userCreated.isReceive = false;\n            userCreated.isCreated = false;\n            userCreated.donated = new address[](0);\n            gameAddress.push(msg.sender);\n        }\n\n        if (gameUser[msg.sender].room > 0) {\n            require(gameUser[msg.sender].room == _amount * (10 ** _decimals), \"Please select right room amount\");\n        }\n        if (!gameUser[_recipient].isCreated) {\n            require(gameUser[_recipient].room == _amount * (10 ** _decimals), \"Please select right user room amount\");\n        }\n\n        _balances[msg.sender] = _balances[msg.sender].sub(\n            _amount,\n            \"donate amount exceeds balance\"\n        );\n        _balances[_recipient] = _balances[_recipient].add(_amount);\n\n        gameUser[msg.sender].donated.push(_recipient);\n        gameUser[_recipient].got.push(msg.sender);\n        gameUser[msg.sender].marked.add(1);\n        gameUser[_recipient].marked.add(1);\n\n        if (\n            gameUser[msg.sender].marked > 1 &&\n            !gameUser[msg.sender].isReceive\n        ) {\n            gameUser[msg.sender].isReceive = true;\n            gameUser[msg.sender].marked = 0;\n            emit NewUser(msg.sender);\n            emit ChangeStatus(msg.sender);\n        }\n\n        if (\n            gameUser[_recipient].marked > 3 &&\n            !gameUser[_recipient].isCreated\n        ) {\n            gameUser[_recipient].isReceive = false;\n            gameUser[_recipient].marked = 0;\n            uint256 currentLevel = 0;\n            for (currentLevel = 0; currentLevel < rooms.length; currentLevel++) {\n                if (gameUser[_recipient].room == rooms[currentLevel]) {\n                    break;\n                }\n            }\n            gameUser[_recipient].room = rooms[currentLevel.add(1)];\n            emit ChangeStatus(msg.sender);\n        }\n\n        emit DonateUser(msg.sender);\n        emit DonateUser(_recipient);\n    }\n\n    function _isDonated(address _from, address _recipient)\n        internal\n        view\n        returns (bool)\n    {\n        if (gameUser[_from].index > 0) {\n            bool notAllow = true;\n            for (uint256 i = 0; i < gameUser[_from].donated.length; i++) {\n                if (gameUser[_from].donated[i] == _recipient) {\n                    notAllow = false;\n                    break;\n                }\n            }\n            return notAllow;\n        } else {\n            return true;\n        }\n    }\n\n    /**\n     * @dev Returns the bep token owner.\n     */\n    function getGameAddress() external view returns (address[] memory) {\n        return gameAddress;\n    }\n\n    function getOwner() external view override returns (address) {\n        return owner();\n    }\n\n    /**\n     * @dev Returns the token decimals.\n     */\n    function decimals() external view override returns (uint8) {\n        return _decimals;\n    }\n\n    /**\n     * @dev Returns the token symbol.\n     */\n    function symbol() external view override returns (string memory) {\n        return _symbol;\n    }\n\n    /**\n     * @dev Returns the token name.\n     */\n    function name() external view override returns (string memory) {\n        return _name;\n    }\n\n    /**\n     * @dev See {BEP20-totalSupply}.\n     */\n    function totalSupply() external view override returns (uint256) {\n        return _totalSupply;\n    }\n\n    /**\n     * @dev See {BEP20-balanceOf}.\n     */\n    function balanceOf(address account)\n        external\n        view\n        override\n        returns (uint256)\n    {\n        return _balances[account];\n    }\n\n    /**\n     * @dev See {BEP20-transfer}.\n     *\n     * Requirements:\n     *\n     * - `recipient` cannot be the zero address.\n     * - the caller must have a balance of at least `amount`.\n     */\n    function transfer(address recipient, uint256 amount)\n        external\n        override\n        returns (bool)\n    {\n        _transfer(_msgSender(), recipient, amount);\n        return true;\n    }\n\n    /**\n     * @dev See {BEP20-allowance}.\n     */\n    function allowance(address owner, address spender)\n        external\n        view\n        override\n        returns (uint256)\n    {\n        return _allowances[owner][spender];\n    }\n\n    /**\n     * @dev See {BEP20-approve}.\n     *\n     * Requirements:\n     *\n     * - `spender` cannot be the zero address.\n     */\n    function approve(address spender, uint256 amount)\n        external\n        override\n        returns (bool)\n    {\n        _approve(_msgSender(), spender, amount);\n        return true;\n    }\n\n    /**\n     * @dev See {BEP20-transferFrom}.\n     *\n     * Emits an {Approval} event indicating the updated allowance. This is not\n     * required by the EIP. See the note at the beginning of {BEP20};\n     *\n     * Requirements:\n     * - `sender` and `recipient` cannot be the zero address.\n     * - `sender` must have a balance of at least `amount`.\n     * - the caller must have allowance for `sender`'s tokens of at least\n     * `amount`.\n     */\n    function transferFrom(\n        address sender,\n        address recipient,\n        uint256 amount\n    ) external override returns (bool) {\n        _transfer(sender, recipient, amount);\n        _approve(\n            sender,\n            _msgSender(),\n            _allowances[sender][_msgSender()].sub(\n                amount,\n                \"BEP20: transfer amount exceeds allowance\"\n            )\n        );\n        return true;\n    }\n\n    /**\n     * @dev Atomically increases the allowance granted to `spender` by the caller.\n     *\n     * This is an alternative to {approve} that can be used as a mitigation for\n     * problems described in {BEP20-approve}.\n     *\n     * Emits an {Approval} event indicating the updated allowance.\n     *\n     * Requirements:\n     *\n     * - `spender` cannot be the zero address.\n     */\n    function increaseAllowance(address spender, uint256 addedValue)\n        public\n        returns (bool)\n    {\n        _approve(\n            _msgSender(),\n            spender,\n            _allowances[_msgSender()][spender].add(addedValue)\n        );\n        return true;\n    }\n\n    /**\n     * @dev Atomically decreases the allowance granted to `spender` by the caller.\n     *\n     * This is an alternative to {approve} that can be used as a mitigation for\n     * problems described in {BEP20-approve}.\n     *\n     * Emits an {Approval} event indicating the updated allowance.\n     *\n     * Requirements:\n     *\n     * - `spender` cannot be the zero address.\n     * - `spender` must have allowance for the caller of at least\n     * `subtractedValue`.\n     */\n    function decreaseAllowance(address spender, uint256 subtractedValue)\n        public\n        returns (bool)\n    {\n        _approve(\n            _msgSender(),\n            spender,\n            _allowances[_msgSender()][spender].sub(\n                subtractedValue,\n                \"BEP20: decreased allowance below zero\"\n            )\n        );\n        return true;\n    }\n\n    /**\n     * @dev Creates `amount` tokens and assigns them to `msg.sender`, increasing\n     * the total supply.\n     *\n     * Requirements\n     *\n     * - `msg.sender` must be the token owner\n     */\n    function mint(uint256 amount) public onlyOwner returns (bool) {\n        _mint(_msgSender(), amount);\n        return true;\n    }\n\n    /**\n     * @dev Moves tokens `amount` from `sender` to `recipient`.\n     *\n     * This is internal function is equivalent to {transfer}, and can be used to\n     * e.g. implement automatic token fees, slashing mechanisms, etc.\n     *\n     * Emits a {Transfer} event.\n     *\n     * Requirements:\n     *\n     * - `sender` cannot be the zero address.\n     * - `recipient` cannot be the zero address.\n     * - `sender` must have a balance of at least `amount`.\n     */\n    function _transfer(\n        address sender,\n        address recipient,\n        uint256 amount\n    ) internal {\n        require(sender != address(0), \"BEP20: transfer from the zero address\");\n        require(recipient != address(0), \"BEP20: transfer to the zero address\");\n\n        _balances[sender] = _balances[sender].sub(\n            amount,\n            \"BEP20: transfer amount exceeds balance\"\n        );\n        _balances[recipient] = _balances[recipient].add(amount);\n        emit Transfer(sender, recipient, amount);\n    }\n\n    /** @dev Creates `amount` tokens and assigns them to `account`, increasing\n     * the total supply.\n     *\n     * Emits a {Transfer} event with `from` set to the zero address.\n     *\n     * Requirements\n     *\n     * - `to` cannot be the zero address.\n     */\n    function _mint(address account, uint256 amount) internal {\n        require(account != address(0), \"BEP20: mint to the zero address\");\n\n        _totalSupply = _totalSupply.add(amount);\n        _balances[account] = _balances[account].add(amount);\n        emit Transfer(address(0), account, amount);\n    }\n\n    /**\n     * @dev Destroys `amount` tokens from `account`, reducing the\n     * total supply.\n     *\n     * Emits a {Transfer} event with `to` set to the zero address.\n     *\n     * Requirements\n     *\n     * - `account` cannot be the zero address.\n     * - `account` must have at least `amount` tokens.\n     */\n    function _burn(address account, uint256 amount) internal {\n        require(account != address(0), \"BEP20: burn from the zero address\");\n\n        _balances[account] = _balances[account].sub(\n            amount,\n            \"BEP20: burn amount exceeds balance\"\n        );\n        _totalSupply = _totalSupply.sub(amount);\n        emit Transfer(account, address(0), amount);\n    }\n\n    /**\n     * @dev Sets `amount` as the allowance of `spender` over the `owner`s tokens.\n     *\n     * This is internal function is equivalent to `approve`, and can be used to\n     * e.g. set automatic allowances for certain subsystems, etc.\n     *\n     * Emits an {Approval} event.\n     *\n     * Requirements:\n     *\n     * - `owner` cannot be the zero address.\n     * - `spender` cannot be the zero address.\n     */\n    function _approve(\n        address owner,\n        address spender,\n        uint256 amount\n    ) internal {\n        require(owner != address(0), \"BEP20: approve from the zero address\");\n        require(spender != address(0), \"BEP20: approve to the zero address\");\n\n        _allowances[owner][spender] = amount;\n        emit Approval(owner, spender, amount);\n    }\n\n    /**\n     * @dev Destroys `amount` tokens from `account`.`amount` is then deducted\n     * from the caller's allowance.\n     *\n     * See {_burn} and {_approve}.\n     */\n    function _burnFrom(address account, uint256 amount) internal {\n        _burn(account, amount);\n        _approve(\n            account,\n            _msgSender(),\n            _allowances[account][_msgSender()].sub(\n                amount,\n                \"BEP20: burn amount exceeds allowance\"\n            )\n        );\n    }\n}\n",
  "sourcePath": "/Users/thuanphan/js/test/trufflesuite_demo/contracts/BEP20Token.sol",
  "compiler": {
    "name": "solc",
    "version": "0.8.6+commit.11564f7e.Emscripten.clang"
  },
  "schemaVersion": "3.4.1",
  "updatedAt": "2021-07-30T15:22:33.788Z",
  "networkType": "ethereum",
  "devdoc": {
    "kind": "dev",
    "methods": {
      "allowance(address,address)": {
        "details": "See {BEP20-allowance}."
      },
      "approve(address,uint256)": {
        "details": "See {BEP20-approve}. Requirements: - `spender` cannot be the zero address."
      },
      "balanceOf(address)": {
        "details": "See {BEP20-balanceOf}."
      },
      "decimals()": {
        "details": "Returns the token decimals."
      },
      "decreaseAllowance(address,uint256)": {
        "details": "Atomically decreases the allowance granted to `spender` by the caller. This is an alternative to {approve} that can be used as a mitigation for problems described in {BEP20-approve}. Emits an {Approval} event indicating the updated allowance. Requirements: - `spender` cannot be the zero address. - `spender` must have allowance for the caller of at least `subtractedValue`."
      },
      "getGameAddress()": {
        "details": "Returns the bep token owner."
      },
      "getOwner()": {
        "details": "Returns the bep token owner."
      },
      "increaseAllowance(address,uint256)": {
        "details": "Atomically increases the allowance granted to `spender` by the caller. This is an alternative to {approve} that can be used as a mitigation for problems described in {BEP20-approve}. Emits an {Approval} event indicating the updated allowance. Requirements: - `spender` cannot be the zero address."
      },
      "mint(uint256)": {
        "details": "Creates `amount` tokens and assigns them to `msg.sender`, increasing the total supply. Requirements - `msg.sender` must be the token owner"
      },
      "name()": {
        "details": "Returns the token name."
      },
      "owner()": {
        "details": "Returns the address of the current owner."
      },
      "renounceOwnership()": {
        "details": "Leaves the contract without owner. It will not be possible to call `onlyOwner` functions anymore. Can only be called by the current owner. NOTE: Renouncing ownership will leave the contract without an owner, thereby removing any functionality that is only available to the owner."
      },
      "symbol()": {
        "details": "Returns the token symbol."
      },
      "totalSupply()": {
        "details": "See {BEP20-totalSupply}."
      },
      "transfer(address,uint256)": {
        "details": "See {BEP20-transfer}. Requirements: - `recipient` cannot be the zero address. - the caller must have a balance of at least `amount`."
      },
      "transferFrom(address,address,uint256)": {
        "details": "See {BEP20-transferFrom}. Emits an {Approval} event indicating the updated allowance. This is not required by the EIP. See the note at the beginning of {BEP20}; Requirements: - `sender` and `recipient` cannot be the zero address. - `sender` must have a balance of at least `amount`. - the caller must have allowance for `sender`'s tokens of at least `amount`."
      },
      "transferOwnership(address)": {
        "details": "Transfers ownership of the contract to a new account (`newOwner`). Can only be called by the current owner."
      }
    },
    "version": 1
  },
  "userdoc": {
    "kind": "user",
    "methods": {},
    "version": 1
  }
}